S01300007473657430332D696E74722E7372656304
S113000045C0000060C000005EC000005CC000008D
S11300105AC0000059C0000078C0000097C000001A
S113002052C0000050C000004EC000004CC0000090
S11300304AC0000048C0000046C0000044C00000A0
S113004042C0000040C000003EC000003CC00000B0
S11300503AC0000038C0000036C0000034C00000C0
S113006032C0000030C000002EC000002CC00000D0
S11300702AC0000028C0000026C0000024C00000E0
S113008022C0000020C000001EC0000011241FBEBA
S1130090CFEFD0E1DEBFCDBF11E0A0E0B1E0E8EDED
S11300A0F2E000E00BBF02C007900D92A231B1074D
S11300B0D9F721E0A2E1B1E001C01D92AB31B20752
S11300C0E1F7E4D007C19CCF1F920F920FB60F92B5
S11300D011248F939F93809114019091150101969F
S11300E0909315018093140180911401909115014E
S11300F0039724F010921501109214019F918F918F
S11301000F900FBE0F901F9018951F920F920FB66D
S11301100F9211248F939F93809112019091130158
S11301200196909313018093120180911201909192
S11301301301039724F010921301109212019F915E
S11301408F910F900FBE0F901F9018951F920F92D2
S11301500FB60F9211240F900FBE0F901F90189599
S113016025B32F6025BB25B343E050E0481B590B52
S113017081E090E002C0880F991F4A95E2F78095CC
S1130180822385BB62BB8FE19EE40197F1F700C037
S1130190000008950F931F93CF93DF938C01C0E069
S11301A0D0E007C0F801EC0FFD1F6081CE01D8DF5D
S11301B02196C430D105B4F3DF91CF911F910F91F3
S11301C008950F931F93CF93DB01AF70BB278B016F
S11301D09C01689413F836952795179507951694FE
S11301E0D1F7F801EF70FF27072F182F292F332796
S11301F0A8014F7055278B019C010F2EFCE036950A
S1130200279517950795FA95D1F7F02D9801611563
S1130210C0E17C0781059105C8F46F3F7105810534
S1130220910509F050F4603171058105910540F0A4
S113023021E130E041E150E009C021E130E006C0B5
S113024021E130E041E150E0E1E1F0E0A050BF4FB6
S11302508C91A6E1B1E08C93E050FF4F8081119620
S11302608C931197FA01E050FF4F808112968C9382
S11302701297F901E050FF4F808113968C931397E6
S1130280CD0188DFCF911F910F9108958FEF81BB2E
S11302908FE084BB80E789BF8AE28ABF8FB780681A
S11302A08FBF7894C12CD12C760180911401909148
S11302B01501009741F0019749F48FEFC81AD80A45
S11302C0E80AF80A03C0C12CD12C7601C701B60193
S10B02D078DFEBCFF894FFCFB7
S11302D83F065B4F666D7D277F6F777C585E79712B
S10502E8C00050
S9030000FC
