S01700007473657430322D37736567322D70662E7372656313
S113000045C0000060C000005EC000005CC000008D
S11300105AC0000058C0000056C0000054C0000080
S113002052C0000050C000004EC000004CC0000090
S11300304AC0000048C0000046C0000044C00000A0
S113004042C0000040C000003EC000003CC00000B0
S11300503AC0000038C0000036C0000034C00000C0
S113006032C0000030C000002EC000002CC00000D0
S11300702AC0000028C0000026C0000024C00000E0
S113008022C0000020C000001EC0000011241FBEBA
S1130090CFEFD0E1DEBFCDBF11E0A0E0B1E0E8E6F4
S11300A0F2E000E00BBF02C007900D92A231B1074D
S11300B0D9F721E0A2E1B1E001C01D92A731B20756
S11300C0E1F7BED0CFC09CCF93B19F6093B993B1F9
S11300D021E030E002C0220F331F8A95E2F7209519
S11300E0292323B962BB2FEF81EE94E02150804095
S11300F09040E1F700C0000083B18F6083B92FEF17
S113010081EE94E0215080409040E1F700C000006F
S113011008950F931F93CF93DF938C01C0E0D0E039
S113012007C0F801EC0FFD1F6081CE01CDDF2196E1
S1130130C430D105B4F3DF91CF911F910F9108958D
S1130140CF93DF93BC016F707078772334F46150E0
S11301507109606F7F6F6F5F7F4F9C01992314F467
S1130160215F3F4F359527953595279535952795EB
S1130170359527952F703078332334F42150310985
S1130180206F3F6F2F5F3F4FFC01992314F4E15020
S1130190FF4F4F2F5F2F550F550B4F70507855233E
S11301A034F441505109406F5F6F4F5F5F4FDC0182
S11301B0992314F4A150B04FEB2FE595E595E595FF
S11301C0E595FB2FFF0FFF0BDC01A150B04FAF3FB4
S11301D0BF41B8F4FC01E150FF4FEF3FF14040F460
S11301E00F964F9740F0E1E1F0E041E150E009C0A3
S11301F0E1E1F0E006C0E1E1F0E041E150E021E1BD
S113020030E0DB01A050BF4F8C91A2E1B1E08C93B0
S1130210E901C050DF4F888111968C931197EA0150
S1130220C050DF4F888112968C931297E050FF4F95
S1130230808113968C931397CD01DF91CF9108950C
S11302408FEF81BB8FE082B980E090E0EC012196D2
S113025077DF5FDF8FE99FE00197F1F700C00000CF
S10B0260CE01F4CFF894FFCFA6
S11302683F065B4F666D7D277F6F777C585E79719B
S1050278C000C0
S9030000FC
