S01B000074657374352D6B69746368656E2074696D65722E73726563C0
S113000045C0000060C000005EC000005CC000008D
S11300105AC0000047C400006FC4000084C400003C
S113002052C0000050C000004EC000004CC0000090
S11300304AC0000048C00000B7C4000044C000002B
S113004042C0000040C000003EC000003CC00000B0
S11300503AC0000038C0000036C0000034C00000C0
S113006032C0000030C000002EC000002CC00000D0
S11300702AC0000028C0000026C0000024C00000E0
S113008022C0000020C000001EC0000011241FBEBA
S1130090CFEFD0E1DEBFCDBF11E0A0E0B1E0E6EDEF
S11300A0FCE000E00BBF02C007900D92A632B1073E
S11300B0D9F721E0A6E2B1E001C01D92A334B20752
S11300C0E1F702D006C69CCFCF93DF9300D000D0D7
S11300D0CDB7DEB765E370E082E390E0C1D480E79A
S11300E089BF8AE28ABF8FEF81BB8FE084BB12B8DD
S11300F08AB380688ABB87B7846087BF8EB5846003
S11301008EBD8FB780688FBF789480E489838A839B
S11301108B838C838091280190912901009721F091
S1130120019709F4CFC2F6CF80913A0190913B0137
S11301308130910509F4BBC01CF4892B49F0EACF46
S11301408230910509F463C1039709F40CC2E2CF2C
S11301501092370110923601109235011092340139
S1130160809136019091370120913401309135010D
S1130170821B930B2091360130913701232B19F503
S113018080913A0190913B0161E070E0019668D55D
S11301902FEF39E688E1215030408040E1F700C07C
S11301A0000080913A0190913B0160E070E001967B
S11301B057D59FEF29E638E1915020403040E1F7D0
S11301C000C0000043C08A30910514F47C0105C0CE
S11301D00F2EF9E0EF2EF12CF02D1E141F0414F055
S11301E0E12CF12C80913A0190913B01E3E0F0E0A5
S11301F0E81BF90BD701A050BF4F8C9121E030E0F0
S11302002C0F3D1FE20FF31F808380913A019091E0
S11302103B01B70101960DD53FEF89E698E13150D6
S113022080409040E1F700C0000080913A01909135
S11302303B0161E070E0019613D52FEF39E688E1C8
S1130240215030408040E1F700C000004091360169
S113025050913701209132013091330191E0452BC7
S113026009F490E081E02130310509F080E0892330
S113027009F476CF9FEF21EE34E0915020403040D6
S1130280E1F700C000008FEF91EE24E08150904030
S11302902040E1F700C000001092330110923201B7
S11302A081E090E090933B0180933A0133CF109228
S11302B033011092320110923701109236011092DC
S11302C035011092340180913601909137012091CB
S11302D0340130913501821B930B2091360130910A
S11302E03701232B19F580913A0190913B0161E08C
S11302F070E00196B5D43FEF89E698E13150804033
S11303009040E1F700C0000080913A0190913B01D8
S113031060E070E00196A4D42FEF39E688E1215023
S113032030408040E1F700C0000044C08A309105AD
S113033014F46C0105C00F2EF9E0CF2ED12CF02D52
S11303401C141D0414F0C12CD12C80913A019091FD
S11303503B01E3E0F0E0E81BF90BD601A050BF4FEE
S11303608C9121E030E02C0F3D1FE20FF31F8058E9
S1130370808380913A0190913B01B601019659D452
S11303803FEF89E698E1315080409040E1F700C0AA
S1130390000080913A0190913B0161E070E0019688
S11303A05FD42FEF39E688E1215030408040E1F7F7
S11303B000C0000040913601509137012091320174
S11303C03091330191E0452B09F490E081E0213034
S11303D0310509F080E0892309F475CF9FEF21EE00
S11303E034E0915020403040E1F700C000008FEF2E
S11303F091EE24E0815090402040E1F700C00000DD
S113040082E090E090933B0180933A0183CE109276
S1130410330110923201109237011092360110927A
S11304203501109234018091360190913701209169
S1130430340130913501821B930B209136013091A8
S11304403701232B19F580913A0190913B0161E02A
S113045070E0019605D43FEF89E698E13150804081
S11304609040E1F700C0000080913A0190913B0177
S113047060E070E00196F4D32FEF39E688E1215073
S113048030408040E1F700C0000040C08630910554
S113049014F48C0102C005E010E01016110614F0EB
S11304A000E010E080913A0190913B01E3E0F0E03C
S11304B0E81BF90BD801A050BF4F8C9121E030E02C
S11304C02C0F3D1FE20FF31F808380913A0190911E
S11304D03B01B8010196ADD33FEF89E698E1315075
S11304E080409040E1F700C0000080913A01909173
S11304F03B0161E070E00196B3D32FEF39E688E168
S1130500215030408040E1F700C0000040913601A6
S113051050913701209132013091330191E0452B04
S113052009F490E081E02130310509F080E089236D
S113053009F479CF9FEF21EE34E091502040304010
S1130540E1F700C000008FEF91EE24E0815090406D
S11305502040E1F700C0000083E090E090933B016D
S113056080933A01D7CD1092330110923201109248
S113057037011092360110923501109234018091A6
S11305803601909137012091340130913501821B5D
S1130590930B2091360130913701232B19F580916B
S11305A03A0190913B0161E070E0019659D33FEF2D
S11305B089E698E1315080409040E1F700C00000A6
S11305C080913A0190913B0160E070E0019648D33C
S11305D02FEF39E688E1215030408040E1F700C038
S11305E0000043C08A30910514F45C0105C00F2E4D
S11305F0F9E0AF2EB12CF02D1A141B0414F0A12C29
S1130600B12C80913A0190913B01E3E0F0E0E81BCA
S1130610F90BD501A050BF4F8C9121E030E02C0F95
S11306203D1FE20FF31F808380913A0190913B01BB
S1130630B5010196FED23FEF89E698E13150804042
S11306409040E1F700C0000080913A0190913B0195
S113065061E070E0019604D32FEF39E688E1215080
S113066030408040E1F700C00000409136015091D5
S11306703701209132013091330191E0452B09F487
S113068090E081E02130310509F080E0892309F40C
S113069076CF9FEF21EE34E0915020403040E1F7D7
S11306A000C000008FEF91EE24E081509040204084
S11306B0E1F700C0000081E090E09093290180936D
S11306C0280128CD10923D0110923C01109239016D
S11306D010923801109235011092340188E592E0AD
S11306E0E89EA001E99E500DF89E500D11242CE3C4
S11306F02C9DC0012D9D900D1124480F591F980168
S1130700220F331F220F331F220F331FC801880FFC
S1130710991F820F931F840F951F8A0D9B1D909321
S113072027018093260180913C0190913D01892B02
S113073021F04AC0CE010196C2D180913C01909132
S11307403D01892BB9F340C080912E0190912F0176
S1130750A0913001B09131010197A140B10540F061
S113076010922E0110922F0110923001109231013B
S113077060912E0170912F0180913001909131018F
S1130780B5D18091340190913501892BE9F0109213
S11307903D0110923C0110923B0110923A011092DB
S11307A039011092380110923701109236011092DB
S11307B035011092340110923301109232011092DB
S11307C029011092280116C08091260190912701D9
S11307D0092E000CAA0BBB0B40912E0150912F0146
S11307E0609130017091310184179507A607B7070E
S11307F009F0AACF8091260190912701092E000CBF
S1130800AA0BBB0B40912E0150912F016091300136
S11308107091310184179507A607B707F9F418C03A
S11308208BB380688BBB8FEF99E628E181509040B1
S11308302040E1F700C000008BB38F778BBB3FEF04
S113084089E698E1315080409040E1F700C0000013
S11308508091380190913901892B11F380913801ED
S113086090913901892B09F455CC10923D011092D5
S11308703C0110923B0110923A01109239011092FE
S113088038011092370110923601109235011092FE
S11308903401109233011092320110922901109206
S11308A0280138CC1F920F920FB60F9211248F9308
S11308B09F9380913601909137010196909337016F
S11308C08093360180913C0190913D010196909373
S11308D03D0180933C0180913C0190913D01029740
S11308E024F010923D0110923C019F918F910F9042
S11308F00FBE0F901F9018951F920F920FB60F9274
S113090011248F939F938091340190913501019626
S113091090933501809334019F918F910F900FBE76
S11309200F901F9018951F920F920FB60F921124DB
S11309302F933F938F939F9310922E0110922F0128
S1130940109230011092310110923D0110923C013D
S113095021E030E0309333012093320180913A0159
S113096090913B01019690933B0180933A0130931F
S113097039012093380180913A0190913B01049709
S113098034F081E090E09093290180932801109243
S11309903D0110923C019F918F913F912F910F90B7
S11309A00FBE0F901F9018951F920F920FB60F92C3
S11309B011242F933F934F935F938F939F93AF9300
S11309C0BF9380912A0190912B01A0912C01B091A9
S11309D02D010196A11DB11D80932A0190932B0135
S11309E0A0932C01B0932D0120913C0130913D0145
S11309F091E040912801509129014130510509F0BD
S1130A0090E081E02130310509F080E08923D9F0BC
S1130A1080912E0190912F01A0913001B09131016C
S1130A200196A11DB11D80932E0190932F01A093D7
S1130A303001B093310110922A0110922B011092CF
S1130A402C0110922D01BF91AF919F918F915F91D5
S1130A504F913F912F910F900FBE0F901F901895BB
S1130A60909313018093120170931101609310010C
S1130A700895E0911001F091110120812F602083ED
S1130A80E0911001F091110123E030E0281B390BB3
S1130A9081E090E002C0880F991F2A95E2F78095C3
S1130AA0908189238083E0911201F0911301608386
S1130AB08FE39FE10197F1F700C0000008950F93C1
S1130AC01F93CF93DF938C01C0E0D0E007C0F801FF
S1130AD0EC0FFD1F6081CE01CCDF2196C430D1051F
S1130AE0B4F3DF91CF911F910F9108954F925F92CC
S1130AF06F927F928F929F92AF92BF92CF92DF922A
S1130B00EF92FF92CF93DF93CDB7DEB728970FB65E
S1130B10F894DEBF0FBECDBF6B017C010F2EFAE04F
S1130B208F2E912CA12CB12CF02DA5019401AFD0C6
S1130B3069837A838B839C830F2EF6E04F2E512C8E
S1130B40612C712CF02DCA01B901A30192019FD02F
S1130B506D837E838F839887C701B6012CE330E0D1
S1130B6040E050E094D0CA01B901A50194018FD0AE
S1130B704B015C01C701B60128E532E040E050E0DA
S1130B8086D0CA01B901A301920181D0E981FA8119
S1130B90EA5EFE4F2081EEE3F1E02083AD81BE8169
S1130BA0AA5EBE4F2C912183D401AA5EBE4F2C9124
S1130BB020582283DB01AA5EBE4F8C9183838AE096
S1130BC0C816D104E104F10428F41382118280E8E8
S1130BD0828315C08CE3C816D104E104F10430F417
S1130BE0EEE3F1E080E88283138209C088E5C81649
S1130BF082E0D806E104F10410F4109241018EE37E
S1130C0091E05DDF8EE391E028960FB6F894DEBFA5
S1130C100FBECDBFDF91CF91FF90EF90DF90CF90CB
S1130C20BF90AF909F908F907F906F905F904F9008
S1130C30089525B32F6025BB45B3019721E030E02B
S1130C40F90102C0EE0FFF1F8A95E2F7CF018095EC
S1130C50842385BBFB01EA5EFE4F808182BB08953D
S1130C6025B32F6025BB45B3019721E030E0F9019E
S1130C7002C0EE0FFF1F8A95E2F7CF01809584230F
S1130C8085BBFB01EC5EFE4F808182BB0895A1E22F
S1130C901A2EAA1BBB1BFD010DC0AA1FBB1FEE1FF2
S1130CA0FF1FA217B307E407F50720F0A21BB30B3D
S1130CB0E40BF50B661F771F881F991F1A9469F7B9
S1130CC060957095809590959B01AC01BD01CF0115
S1090CD00895F894FFCF23
S1130CD63F065B4F666D7D277F67777C585E79712B
S1130CE63500320040003F065B4F666D7D277F6707
S1090CF6777C585E797161
S9030000FC
