S01400007465737430342D54696D65722E73726563BE
S113000045C0000060C000005EC000005CC000008D
S11300105AC0000058C0000056C0000054C0000080
S113002052C0000050C000004EC000004CC0000090
S11300304AC0000048C0000078C0000044C000006E
S113004042C0000040C000003EC000003CC00000B0
S11300503AC0000038C0000036C0000034C00000C0
S113006032C0000030C000002EC000002CC00000D0
S11300702AC0000028C0000026C0000024C00000E0
S113008022C0000020C000001EC0000011241FBEBA
S1130090CFEFD0E1DEBFCDBF11E0A0E0B1E0EEEDE7
S11300A0F2E000E00BBF02C007900D92A831B10747
S11300B0D9F721E0A8E1B1E001C01D92A132B20755
S11300C0E1F702D00AC19CCF65E370E082E390E0DF
S11300D051D08FEF81BB8FE084BB87B7846087BF2B
S11300E084E083BF8EBD8FB780688FBF7894809182
S11300F0180190911901A0911A01B0911B01009768
S1130100A140B10540F0109218011092190110920B
S11301101A0110921B0160911801709119018091CC
S11301201A0190911B0176D0E2CF1F920F920FB665
S11301300F9211248F939F93AF93BF9380911801D3
S113014090911901A0911A01B0911B010196A11D72
S1130150B11D8093180190931901A0931A01B093D3
S11301601B01BF91AF919F918F910F900FBE0F9084
S11301701F901895909305018093040170930301D7
S1130180609302010895E0910201F091030120813E
S11301902F602083E0910201F091030123E030E01D
S11301A0281B390B81E090E002C0880F991F2A9523
S11301B0E2F78095908189238083E0910401F09196
S11301C00501608308950F931F93CF93DF932091CC
S11301D000013091010112161306BCF4082F192FE7
S11301E0C0E0D0E0F80161918F01CE01CCDF8FE156
S11301F09EE40197F1F700C0000021968091000170
S113020090910101C817D9076CF3DF91CF911F9129
S11302100F9108950F931F938B019C01222733277D
S1130220ECE1F1E06F707727DB01AA5FBE4F8C91A0
S11302308083D901C801689413F8B695A79597955A
S113024087951694D1F78F709927DC01AA5FBE4F6A
S11302508C918183BB27A32F922F812F8F70992795
S1130260DC01AA5FBE4F8C918283D901C801072E9D
S11302707CE0B695A795979587957A95D1F7702DDB
S1130280DC01AA5FBE4F8C918383011580E11807BE
S11302902105310570F4013081E01807210531058D
S11302A058F4013111052105310548F481E090E04D
S11302B008C084E090E005C083E090E002C082E0E2
S11302C090E090930101809300018CE191E07BDF49
S11102D08CE191E01F910F910895F894FFCFF7
S11302DE0400350032003F065B4F666D7D277F6F4D
S10B02EE777C585E7971C000B1
S9030000FC
